:020000040800F2
:100000002004002045010008B3040008090300088B
:10001000B10400082F020008A10800080000000039
:10002000000000000000000000000000E1050008E2
:100030003102000800000000190500088D060008C4
:100040005F0100085F0100085F0100085F01000810
:100050005F0100085F0100085F0100085F01000800
:100060005F0100085F0100085F0100085F010008F0
:100070005F0100085F0100085F0100085F010008E0
:100080005F0100085F0100085F0100085F010008D0
:100090005F0100085F0100085F0100085F010008C0
:1000A0005F0100085F0100085F0100085F010008B0
:1000B0005F0100085F0100085F0100085F010008A0
:1000C0005F0100085F0100085F0100085F01000890
:1000D0005F0100085F0100085F0100085F01000880
:1000E0005F0100085F0100085F0100085F01000870
:1000F0005F0100085F0100085F0100085F01000860
:100100005F0100085F0100085F0100085F0100084F
:100110005F0100085F0100085F0100085F0100083F
:100120005F0100085F0100085F0100085F0100082F
:10013000DFF80CD000F04AF800480047C90B00086F
:10014000200400200648804706480047FEE7FEE7F7
:10015000FEE7FEE7FEE7FEE7FEE7FEE7FEE7FEE777
:1001600091060008310100082DE9F05F05460020E6
:1001700092469B4688460646814640241BE0284618
:1001800041464746224600F042F853465A46C01AB6
:10019000914110D311461846224600F029F82D1A35
:1001A00067EB01084F4622460120002100F020F8AD
:1001B00017EB00094E41201EA4F10104DFDC484684
:1001C00031462A464346BDE8F09F0000064C074DE5
:1001D00006E0E06840F0010394E807009847103417
:1001E000AC42F6D3FFF7A8FFEC0B00080C0C00089C
:1001F000202A04DB203A00FA02F1002070479140E7
:10020000C2F1200320FA03F3194390407047202ADB
:1002100004DB203A21FA02F00021704721FA02F3B0
:10022000D040C2F120029140084319467047FEE7D2
:100230007047000008B50121480500F06FF9012161
:10024000082000F077F9C020ADF8000003208DF8F9
:1002500002001C208DF803006946024800F004F8F3
:1002600008BD0000000C0140F0B5CC78002204F07D
:100270000F03E40601D58C7823430C784FF00F0C64
:1002800014F0FF0F4FF0010E1BD005680E880EFA18
:1002900002F42640A64210D196000CFA06F725EA91
:1002A000070703FA06F5CE783D43282E02D0482EE4
:1002B00002D002E0446100E00461521C082AE5D348
:1002C00005600A88FF2A1CD94468002202F108064A
:1002D0000EFA06F50E882E40AE420ED196000CFAAC
:1002E00006F7BC4303FA06F7CE783C43282E00D12C
:1002F0004561CE78482E00D10561521C082AE5D30D
:100300004460F0BD41617047FEE70029018802D0DA
:1003100041F4806101E021F480610180704700298F
:10032000018802D041F0010101E021F001010180CA
:10033000704700001FB50020ADF804004BF6FF70B9
:10034000ADF80600A020ADF808004FF48060ADF8CD
:100350000A000001ADF80C0009480A4C0090012188
:100360002046FFF7DCFF6946204600F027F8012110
:100370002046FFF7CAFF04A000F094FA1FBD00005A
:10038000801A0600005400404932435F436F6E6696
:10039000696775726174696F6E2D2D2D2D646F6E96
:1003A00065210A0010B5FFF745FFFFF7C3FF0249BB
:1003B000A020088010BD00000000002070B5044699
:1003C000808886B00D4620F03F06684600F0BEF8F3
:1003D00027490298B0FBF1F189B20E43A68022882A
:1003E00022F001022280234B2A689A421CD8520034
:1003F000B0FBF2F080B2042800D20420491C218412
:10040000A083208840F00100208020884FF6F5313D
:100410000840A9886A89114301432180A889298954
:100420000843208106B070BDEB88A3F53F46FF3E30
:100430000BD002EBC20303EB0212B0FBF2F080B26E
:1004400040F48040020506D007E002EB4202B0FB18
:10045000F2F080B2F6E740F001004FF4967251439B
:100460004FF47A72B1FBF2F140F40040C6E70000AD
:1004700040420F00A086010038B50121802000F025
:1004800059F84FF47074ADF8004010208DF8030057
:1004900003208DF8020069460348FFF7E5FE214678
:1004A0000248FFF72FFF38BD001C01400018014033
:1004B000FEE7704730B50F23C27801780125F2B10D
:1004C000144A126801F1E02102F4E062C2F5E06230
:1004D000120AC2F10404D3404278A24084781C403E
:1004E0001443220181F80024007800F01F018D40A0
:1004F0004009800000F1E020C0F8005130BD01F05B
:100500001F0085404809800000F1E020C0F88051BC
:1005100030BD00000CED00E070470000044A0029E7
:10052000D16901D0014300E08143D16170470000EF
:1005300000100240044A0029916901D0014300E003
:1005400081439161704700000010024030B5204A9D
:100550005168204B11F00C0103D0042901D0082967
:1005600001D0036012E05168536801F470114FF03C
:10057000020413F4803F04EB914102D053689B03C3
:1005800001D5154B00E0134B5943016051680F230F
:1005900003EA1111114B5C5C0168E1404160546851
:1005A000072505EA14241C5D21FA04F484605468CC
:1005B00005EAD4241B5DD940C1605268032303EAD5
:1005C0009232064B1B1F9A5CB1FBF2F1016130BD08
:1005D0000010024000127A0000093D0006000020D1
:1005E000704700000CB50022264800920192016875
:1005F00041F4803101604FF4A063016801F40031DF
:1006000001910099491C0091019911B900999942F1
:10061000F3D10168890333D5012101911A490A6890
:1006200042F010020A600A6822F003020A600A68B7
:1006300042F002020A6041684160416841604168DD
:1006400041F480614160416821F47C11416041685E
:1006500041F4E8114160016841F080710160016876
:100660008901FCD5416821F003014160416841F0F6
:10067000020141604168C1F381010229FAD10CBD38
:1006800001920CBD001002400020024070470000A3
:100690000F4810B5016841F00101016041680D4A41
:1006A0001140416001680C4A11400160016821F469
:1006B00080210160416821F4FE0141604FF41F0177
:1006C0008160FFF78FFF05494FF00060086010BDA3
:1006D000001002400000FFF8FFFFF6FE08ED00E00A
:1006E000C943018070470029818902D041F400513B
:1006F00001E021F4005181817047024600201288F8
:100700000A4200D00120704710B5C1F3421301F036
:100710001F040121A140012B07D0022B07D0143068
:10072000002A026805D00A4304E00C30F8E71030D4
:10073000F6E78A43026010BD30B50446008A85B0F2
:100740000D464CF6FF710840E98801432182A089DB
:100750004EF6F3110840A9882A8911436A89024399
:100760001143A181A08A4FF6FF410840A9890143A6
:10077000A1826846FFF7EAFE1948844201D1039836
:1007800000E00298A189090400EBC00101EB001010
:10079000296801D5490000E08900B0FBF1F064222E
:1007A000B0FBF2F109010B096FF018056B4300EB88
:1007B0008300A3891D044FF0320306D503EBC0006C
:1007C000B0FBF2F000F0070005E003EB0010B0FB17
:1007D000F2F000F00F000843208105B030BD0000AA
:1007E00000380140C1F308018180704730B587B0FF
:1007F0004FF4E13100910021ADF80410ADF806107E
:10080000ADF80810ADF80C100C210324ADF80A1057
:10081000022835D2DFE800F03401012144F204005F
:10082000FFF788FE4FF40070ADF8100018208DF827
:100830001300194D8DF8124004A92846FFF714FD46
:100840002915ADF8101004218DF8131004A92846BD
:10085000FFF70AFD2520114D8DF814006946284642
:10086000FFF76AFF012240F225512846FFF74CFFAF
:1008700001212846FFF737FF40212846FFF730FFC8
:100880008DF815408DF8164001208DF8170005A849
:10089000FFF710FE07B030BD0008014000380140EE
:1008A000FEE700000FB4054B10B503A9044A0298F7
:1008B00000F018F810BC5DF814FB0000A50B000850
:1008C0001800002002E008C8121F08C1002AFAD14F
:1008D00070477047002001E001C1121F002AFBD1C0
:1008E000704700002DE9FF4F8DB09B460F46044630
:1008F000002606E025280BD05A460F999047641C25
:10090000761C20780028F5D111B03046BDE8F08F74
:100910000025A8460122984900E0054314F8013F4C
:10092000203B02FA03F00842F7D120782E2817D195
:1009300014F8010F45F004052A280ED06FF02F029D
:100940002078A0F1300109290AD808EB880102EBD0
:10095000410100EB0108641CF2E757F8048B641CAA
:1009600020786C280DD004DC4C2812D06A2811D1D4
:1009700004E074280DD07A280CD10AE045F4001563
:1009800007E0617845F48015814202D1641C05F5C9
:100990008015641C2278692A45D008DC002AB3D06F
:1009A000582A69D0632A10D0642A08D13BE0702A03
:1009B00067D0732A13D0752A5CD0782A5CD0104691
:1009C0005A460F999047761CD3E017F8040B8DF820
:1009D000000000208DF80100E946012003E057F8EF
:1009E000049B4FF0FF3069074FF0000501D40AE087
:1009F0006D1C45450DDA8542FADB19F80510002912
:100A0000F6D106E06D1C8542FCDB19F805100029C3
:100A1000F8D12E4404E019F8010B5A460F9990477B
:100A20006D1EF8D2A5E00A200021CDE90801C5F32A
:100A3000025002280DD001CFC117031E71F100032F
:100A40000DDA4FF0000CD0EB0C006CEB01012D2304
:100A500008E0FF1D27F00707F7E80201EDE72B0587
:100A600004D52B238DF8283001233BE0EB0739D048
:100A70002023F7E70A2000E010200021CDE908013B
:100A800007E01020002145F00405CDE908014FF0F2
:100A90000808C5F3025002280FD001CF00214FF003
:100AA000000A2B071FD5702A0DD0DDE908C38CF092
:100AB000100C5CEA030C0CD015E0FF1D27F00707B3
:100AC000F7E80201EBE740228DF828204FF0010AF9
:100AD0000BE050EA010306D030238DF828308DF862
:100AE000292002239A46582A04D024A20DF1200975
:100AF0000B9209E026A2F9E7DDE90823FFF734FBB2
:100B00000B9B9B5C09F8013D50EA0102F4D1ADEB6F
:100B1000090020300890680701D44FF001080899B7
:100B2000884502DDA8EB010000E00020804600259A
:100B300006E00AA85A46405D0F9990476D1C761C46
:100B40005545F6DB04E030205A460F999047761C55
:100B5000B8F10001A8F10108F5DC05E019F8010B76
:100B60005A460F999047761C0899481E089000290C
:100B7000F4DC641CC5E60000092801003031323382
:100B800034353637383961626364656600000000C9
:100B900030313233343536373839414243444546B3
:100BA0000000000070B5074D0446C1B22846FFF7AB
:100BB00019FE40212846FFF7A0FD0028F9D0204665
:100BC00070BD0000003801400120FFF70FFEFFF765
:100BD00053FCFFF7E7FB02A0FFF764FEFEE700000F
:100BE00048656C6C6F204D4355210A000C0C0008C1
:100BF000000000201C000000C4080008280C0008A9
:100C00001C00002004040000D408000800000204B6
:100C100006080000000001020304010203040607A5
:080C20000809000000000000BB
:0400000508000131BD
:00000001FF
